:020000040800F2
:1000000000A00020B59A00085D8400086184000803
:1000100065840008698400086D8400080000000001
:1000200000000000000000000000000071840008D3
:100030007584000800000000798400087D840008B1
:10004000059B0008059B0008059B0008059B000810
:10005000059B0008059B0008059B0008059B000800
:10006000059B0008059B0008059B00088D8400087F
:10007000059B0008059B0008059B0008059B0008E0
:1000800099840008059B0008059B0008059B000853
:10009000059B0008059B0008059B0008059B0008C0
:1000A000059B0008059B0008059B0008059B0008B0
:1000B000059B0008059B0008059B0008059B0008A0
:1000C000059B0008059B0008059B0008059B000890
:1000D000059B0008059B0008059B0008059B000880
:1000E000059B0008059B0008059B0008059B000870
:1000F000059B0008059B0008059B0008059B000860
:10010000000000000000000000000000059B000847
:10011000059B0008059B0008A5840008059B0008B6
:10012000059B0008059B0008B1840008BD840008F9
:10013000C9840008059B00080000000000000000C2
:10014000059B0008059B0008059B000800000000B7
:10015000000000000000000000000000000000009F
:100160000000000000000000059B0008059B00083F
:10017000059B0008000000000000000000000000D7
:0801800000000000059B0008CF
:1001880010B5054C237833B9044B13B10448AFF3C9
:1001980000800123237010BD7400002000000000BF
:1001A80054B3000808B5034B1BB103490348AFF328
:1001B800008008BD000000007800002054B300084B
:1001C80081F0004102E000BF83F0004330B54FEA00
:1001D80041044FEA430594EA050F08BF90EA020F6D
:1001E8001FBF54EA000C55EA020C7FEA645C7FEA00
:1001F800655C00F0E2804FEA5454D4EB5555B8BF23
:100208006D420CDD2C4480EA020281EA030382EA93
:10021800000083EA010180EA020281EA0303362D25
:1002280088BF30BD11F0004F4FEA01314FF4801CF8
:100238004CEA113102D0404261EB410113F0004F0A
:100248004FEA03334CEA133302D0524263EB4303C1
:1002580094EA050F00F0A780A4F10104D5F1200E5F
:100268000DDB02FA0EFC22FA05F2801841F10001BA
:1002780003FA0EF2801843FA05F359410EE0A5F18E
:1002880020050EF1200E012A03FA0EFC28BF4CF0BF
:10029800020C43FA05F3C01851EBE37101F0004575
:1002A80007D54FF0000EDCF1000C7EEB00006EEB82
:1002B8000101B1F5801F1BD3B1F5001F0CD349080C
:1002C8005FEA30004FEA3C0C04F101044FEA445263
:1002D80012F5800F80F09A80BCF1004F08BF5FEAEA
:1002E800500C50F1000041EB045141EA050130BDCA
:1002F8005FEA4C0C404141EB010111F4801FA4F16D
:100308000104E9D191F0000F04BF01460020B1FAC1
:1003180081F308BF2033A3F10B03B3F120020CDAF9
:100328000C3208DD02F1140CC2F10C0201FA0CF0D7
:1003380021FA02F10CE002F11402D8BFC2F1200C3C
:1003480001FA02F120FA0CFCDCBF41EA0C019040F2
:10035800E41AA2BF01EB0451294330BD6FEA04043B
:100368001F3C1CDA0C340EDC04F11404C4F1200226
:1003780020FA04F001FA02F340EA030021FA04F338
:1003880045EA030130BDC4F10C04C4F1200220FA8F
:1003980002F001FA04F340EA0300294630BD21FACD
:1003A80004F0294630BD94F0000F83F4801306BF93
:1003B80081F480110134013D4EE77FEA645C18BF87
:1003C8007FEA655C29D094EA050F08BF90EA020F1E
:1003D80005D054EA000C04BF1946104630BD91EA16
:1003E800030F1EBF0021002030BD5FEA545C05D119
:1003F8004000494128BF41F0004130BD14F5800458
:100408003CBF01F5801130BD01F0004545F0FE41CB
:1004180041F470014FF0000030BD7FEA645C1ABF00
:10042800194610467FEA655C1CBF0B46024650EA37
:10043800013406BF52EA033591EA030F41F4002163
:1004480030BD00BF90F0000F04BF0021704730B5E9
:100458004FF4806404F132044FF000054FF00001BE
:1004680050E700BF90F0000F04BF0021704730B57F
:100478004FF4806404F1320410F0004548BF404254
:100488004FF000013EE700BF42004FEAE2014FEAA9
:1004980031014FEA02701FBF12F07F4393F07F4F84
:1004A80081F06051704792F0000F14BF93F07F4FB6
:1004B800704730B54FF4607401F0004521F00041F9
:1004C80020E700BF50EA010208BF704730B54FF07F
:1004D80000050AE050EA010208BF704730B511F084
:1004E800004502D5404261EB41014FF4806404F1BC
:1004F80032045FEA915C3FF4DCAE4FF003025FEA3E
:10050800DC0C18BF03325FEADC0C18BF033202EBC5
:10051800DC02C2F1200300FA03FC20FA02F001FA1F
:1005280003FE40EA0E0021FA02F11444C1E600BFBE
:1005380070B54FF0FF0C4CF4E06C1CEA11541DBF71
:100548001CEA135594EA0C0F95EA0C0F00F0DEF83C
:100558002C4481EA030621EA4C5123EA4C5350EA21
:10056800013518BF52EA033541F4801143F4801372
:1005780038D0A0FB02CE4FF00005E1FB02E506F003
:100588000042E0FB03E54FF00006E1FB03569CF058
:10059800000F18BF4EF0010EA4F1FF04B6F5007F5E
:1005A80064F5407404D25FEA4E0E6D4146EB0606D0
:1005B80042EAC62141EA55514FEAC52040EA5E5059
:1005C8004FEACE2EB4F1FD0C88BFBCF5E06F1ED803
:1005D800BEF1004F08BF5FEA500E50F1000041EB3A
:1005E800045170BD06F0004646EA010140EA0200E7
:1005F80081EA0301B4EB5C04C2BFD4EB0C0541EA09
:10060800045170BD41F480114FF0000E013C00F31D
:10061800AB8014F1360FDEBF002001F0004170BD41
:10062800C4F10004203C35DA0C341BDC04F114045A
:10063800C4F1200500FA05F320FA04F001FA05F2E6
:1006480040EA020001F0004221F0004110EBD370B3
:1006580021FA04F642EB06015EEA430E08BF20EADF
:10066800D37070BDC4F10C04C4F1200500FA04F382
:1006780020FA05F001FA04F240EA020001F0004114
:1006880010EBD37041F100015EEA430E08BF20EA87
:10069800D37070BDC4F1200500FA05F24EEA020ECF
:1006A80020FA04F301FA05F243EA020321FA04F0FE
:1006B80001F0004121FA04F220EA020000EBD370B5
:1006C8005EEA430E08BF20EAD37070BD94F0000FB5
:1006D8000FD101F00046400041EB010111F4801FE9
:1006E80008BF013CF7D041EA060195F0000F18BF9A
:1006F800704703F00046520043EB030313F4801FD6
:1007080008BF013DF7D043EA0603704794EA0C0F8F
:100718000CEA135518BF95EA0C0F0CD050EA4106A5
:1007280018BF52EA4306D1D181EA030101F0004122
:100738004FF0000070BD50EA410606BF104619464A
:1007480052EA430619D094EA0C0F02D150EA013656
:1007580013D195EA0C0F05D152EA03361CBF104697
:1007680019460AD181EA030101F0004141F0FE4136
:1007780041F470014FF0000070BD41F0FE4141F4BA
:10078800780170BD70B54FF0FF0C4CF4E06C1CEABA
:1007980011541DBF1CEA135594EA0C0F95EA0C0F6F
:1007A80000F0A7F8A4EB050481EA030E52EA03352A
:1007B8004FEA013100F088804FEA03334FF080554B
:1007C80045EA131343EA12634FEA022245EA111578
:1007D80045EA10654FEA00260EF000419D4208BF29
:1007E800964244F1FD0404F5407402D25B084FEAD6
:1007F8003202B61A65EB03055B084FEA32024FF482
:1008080080104FF4002CB6EB020E75EB030E22BFDE
:10081800B61A754640EA0C005B084FEA3202B6EB9E
:10082800020E75EB030E22BFB61A754640EA5C004D
:100838005B084FEA3202B6EB020E75EB030E22BFDD
:10084800B61A754640EA9C005B084FEA3202B6EBDE
:10085800020E75EB030E22BFB61A754640EADC009D
:1008680055EA060E18D04FEA051545EA16754FEAFF
:1008780006164FEAC30343EA52734FEAC2025FEA1D
:100888001C1CC0D111F4801F0BD141EA00014FF0AC
:1008980000004FF0004CB6E711F4801F04BF01437D
:1008A8000020B4F1FD0C88BFBCF5E06F3FF6AFAE99
:1008B800B5EB030C04BFB6EB020C5FEA500C50F129
:1008C800000041EB045170BD0EF0004E4EEA1131AC
:1008D80014EB5C04C2BFD4EB0C0541EA045170BDB3
:1008E80041F480114FF0000E013C90E645EA060EF7
:1008F8008DE60CEA135594EA0C0F08BF95EA0C0F25
:100908003FF43BAF94EA0C0F0AD150EA01347FF46C
:1009180034AF95EA0C0F7FF425AF104619462CE743
:1009280095EA0C0F06D152EA03353FF4FDAE1046A6
:10093800194622E750EA410618BF52EA43067FF4F7
:10094800C5AE50EA41047FF40DAF52EA43057FF487
:10095800EBAE12E74FF0FF3C06E000BF4FF0010C92
:1009680002E000BF4FF0010C4DF804CD4FEA410CF6
:100978007FEA6C5C4FEA430C18BF7FEA6C5C1BD0C3
:1009880001B050EA410C0CBF52EA430C91EA030F44
:1009980002BF90EA020F0020704710F1000F91EAA1
:1009A800030F58BF994208BF90422CBFD8176FEA6F
:1009B800E37040F0010070474FEA410C7FEA6C5C3D
:1009C80002D150EA013C07D14FEA430C7FEA6C5C44
:1009D800D6D152EA033CD3D05DF8040B704700BF70
:1009E8008446104662468C461946634600E000BFBE
:1009F80001B5FFF7B7FF002848BF10F1000F01BD90
:100A08004DF808EDFFF7F4FF0CBF012000205DF85A
:100A180008FB00BF4DF808EDFFF7EAFF34BF0120DF
:100A280000205DF808FB00BF4DF808EDFFF7E0FF78
:100A380094BF012000205DF808FB00BF4DF808EDC9
:100A4800FFF7CEFF94BF012000205DF808FB00BF30
:100A58004DF808EDFFF7C4FF34BF012000205DF812
:100A680008FB00BF4FEA410C7FEA6C5C02D150EAF8
:100A7800013C0AD14FEA430C7FEA6C5C02D152EA8E
:100A8800033C02D14FF0000070474FF0010070475F
:100A98004FEA410212F5001215D211D56FF478739E
:100AA800B3EB625212D94FEAC12343F0004343EA41
:100AB800505311F0004F23FA02F018BF404270471C
:100AC8004FF00000704750EA013005D111F00040A6
:100AD80008BF6FF0004070474FF00000704700BF3C
:100AE8004A0011D212F5001211D20DD56FF47873A5
:100AF800B3EB62520ED44FEAC12343F0004343EAFA
:100B0800505323FA02F070474FF00000704750EA44
:100B1800013002D14FF0FF3070474FF000007047AE
:100B28004FEA4102B2F1E04324BFB3F5001CDCF107
:100B3800FE5C0DD901F0004C4FEAC0024CEA50703F
:100B4800B2F1004F40EB830008BF20F0010070476E
:100B580011F0804F21D113F13872BCBF01F0004071
:100B6800704741F480114FEA5252C2F11802C2F1A3
:100B7800200C10FA0CF320FA02F018BF40F0010024
:100B88004FEAC1234FEAD32303FA0CFC40EA0C00D6
:100B980023FA02F34FEA4303CCE77FEA625307D113
:100BA80050EA01331EBF4FF0FE4040F4400070474A
:100BB80001F0004040F0FE4040F40000704700BFE4
:100BC80038B50E4A0E4B12781B6805464FF47A70FA
:100BD800B0FBF2F0B3FBF0F000F04AFD08B90F2DBE
:100BE80001D9012038BD0446024629464FF0FF309E
:100BF80000F0FCFC034B20461D6038BD00000020BF
:100C08000800002004000020074A08B5136843F0D4
:100C180010031360032000F0D7FC0020FFF7D0FF7B
:100C280007F0D0FB002008BD00200240034A044B17
:100C380011681B780B441360704700BFA0000020A8
:100C480000000020014B1868704700BFA00000207A
:100C580038B50446FFF7F6FF631C054602D0044B7F
:100C68001B781C44FFF7EEFF401B8442FAD838BDBE
:100C780000000020704700BF704700BF704700BFEA
:100C8800406A436C43F040034364836C43F00403BD
:100C98008364FFF7F3BF00BF406AFFF7EDBF00BFF3
:100CA800436A5A6C12F0500F18D15A6C196842F402
:100CB80000725A64CA6812F4406F0CD1DA6952B9EA
:100CC8005A6C22F480725A645A6CD20403D45A6C57
:100CD80042F001025A641846FFF7CCBFDB6B1B6B6E
:100CE800184700BFF0B583B000230193002800F037
:100CF800A380436C13F01003044617D1456C002DF4
:100D080000F08D8002689168CD007CD591688800DC
:100D180079D4616CC90600D463B1636C23F0120303
:100D280043F010030120636403B0F0BD436CDA069E
:100D3800F3D40268906810F00400EED1616C954B12
:100D480021F4817141F00201B2F1A04F616400F019
:100D5800BD809A4200F0B8808F4B9A4200F0C6805E
:100D68008E498A4200F0C380936803F00303012B85
:100D780065D11368DB0762D5A76BE168A368E669EC
:100D8800656A012F43EA010318BF4FF4805043EA14
:100D98004633012D43EA000300F08E80E16A012901
:100DA8000BD07D48824200F0A48000F5807082421A
:100DB80000F09F80206B03430B43916811F00C0FE8
:100DC8000BD1D068616BA56920F48040490020F000
:100DD800020041EA8531D0600B43D568704920692B
:100DE80029400B430128D3605ED0136B23F00F0317
:100DF80013630020A064636C23F0030343F0010332
:100E0800636403B0F0BD636C23F0120343F0100376
:100E18006364A36C43F00103A364636C7DE785649A
:100E28000565C56480F8405003F094FC2268936817
:100E3800DB000CD5002366E7012003B0F0BD594D57
:100E4800AB68616823F440330B43AB6094E7936865
:100E580003F00303012B63D0636CDE06EAD4616CF4
:100E6800514B52481B6821F4885121F0020141F08E
:100E780002016164916821F040519160A0FB031365
:100E88009B0C916803EB83035B0041F080519160F8
:100E98000193019B002B3FF436AF019B013B01936B
:100EA800019B002BF9D12EE7116B236A21F00F016A
:100EB800013B0B4313639CE73EBBA16A013943EA3C
:100EC800414343F4803369E74FF0A043384D9168BC
:100ED80001F00301012958D0996801F003010129A3
:100EE800AED11B68DE073FF547AFA9E72B4B2D4D69
:100EF800EDE7B1F5307F26D0B1F5807F3FD0B1F571
:100F0800E07F08BF4FF4807154E7616C21F0220143
:100F180041F020016164A16C41F00101A1643DE749
:100F28001368DF0798D5936803F00D03012B0DD0E4
:100F3800636C43F010036364A36C43F00103A36480
:100F4800636C0123DFE64FF4E07133E79368032114
:100F580043F0020393601160FFF774FE054604E056
:100F6800FFF770FE401B02280CD82268936813F024
:100F78000103F5D1616CC9063FF5C5AE6FE74FF4C3
:100F8800307117E7636C2268D3E71168CF073FF524
:100F9800F3AEA1E700010050000400500005005026
:100FA80007C0F0FF000700500800002083DE1B4345
:100FB800000300502DE9F0410568AC68670702D5C9
:100FC8000220BDE8F08190F84030012BF8D00123D1
:100FD800B5F1A04F80F8403025D0544B9D4222D027
:100FE800534B9B6813F01F0F0CBF0123002390463F
:100FF8000F4604462BB9002384F840300120BDE891
:10100800F081AB6803F00303012B14D0AA68494BA5
:101018001A426BD0636C43F010036364A36C43F013
:101028000103A364E7E7444B9B6813F01F0F0CBF51
:1010380001230023DBE72B68DE07E7D5636C23F485
:10104800706323F0010343F48073B5F1A04F636428
:1010580042D0364B9D425BD003F5C0639B68D906EE
:101068003CD0364A954239D0636C43F480136364AC
:10107800D368C3F340632BB1636C23F4405343F448
:1010880080536364636CE06B2D492E4A13F48053DC
:101098001CBFA36C23F00603A36400262A4B84F824
:1010A8004060C3621C23816202632B606B6843F05B
:1010B80010036B60E96841F0010143463A46E96074
:1010C80005F1400100F046FB2268936843F00403F1
:1010D80030469360BDE8F081174B9B68636C23F43E
:1010E80080136364EB689A01CCD5C5E7AB6843F01D
:1010F8000103AB60FFF7A6FD064604E0FFF7A2FD7B
:10110800801B022886D825682B68D807F6D595E76E
:10111800094B9B68DB06E1D0636C4FF0A04243F4B7
:1011280080136364D368C3F34063A4E700010050ED
:10113800000700503F0000800003005000040050EA
:10114800A90C0008890C0008A10C0008F0B503469A
:1011580083B093F840200020012A019047D01A68F4
:10116800CC68956801206F0783F8400008D55A6C51
:1011780042F020025A64002283F8402003B0F0BDF8
:101188004868042836D909287BD800EB400040007D
:101198001E38566B0D681F27874026EA070605FA92
:1011A80000F030435063906810F00C0F33D1092DD4
:1011B80059D905EB45071E3F90698E684FF0070E19
:1011C8000EFA07FE20EA0E00BE4030439061D06858
:1011D8000E694F69C0F3C1004000013E07FA00F0F4
:1011E800032E00F2D280DFE806F0887E746A0220BF
:1011F80003B0F0BD00EB4000166B0D6840001F27E0
:10120800874026EA070605FA00F030431063906825
:1012180010F00C0FCBD0906800F0030001281ED00E
:10122800012C00F09380D2F8B0100120A84021EAE8
:101238000001C2F8B010B2F1A04F00F0D980964C6E
:1012480096499748A24208BF0146102D00F09580A4
:10125800112D00F09680122D59D000208BE71068D0
:10126800C607DDD5F9E705EB450E50698E680727F7
:1012780007FA0EF720EA070006FA0EF63043506127
:10128800A5E70E2800EB40004FEA40000BD83C3899
:10129800966B0D681F27874026EA070605FA00F0B7
:1012A800304390637FE75A38D66B0D681F27874015
:1012B80026EA070605FA00F03043D06373E7D76ED5
:1012C800784E3E4046F00046304340EA8560D0669E
:1012D800A1E7976E734E3E4046F00046304340EA21
:1012E8008560906697E7576E6E4E3E4046F0004622
:1012F800304340EA856050668DE7176E694E3E4080
:1013080046F00046304340EA8560106683E7886807
:101318004702A2D4B2F1A04F5F4852D0824200F0F7
:10132800898000F5407082424AD05F4CA24248D082
:10133800906800F00300012879D11068C0074AD5E9
:101348005A6C42F020025A64012014E7D2F8B00027
:10135800AC400443092DC2F8B0404BD905EB450019
:101368008E689469A0F11B0107278F4006FA01F0E7
:1013780024EA0701014391615DE788680402C9D541
:101388006BE78868C001C5D567E7166EA80606F042
:10139800F846864246D0566E06F0F846B0423CD033
:1013A800966E06F0F846B04232D0D66E06F0F84691
:1013B800B0427FF430AFD06E20F00040D0662AE70C
:1013C8003948946804F00304012C60D0846804F060
:1013D8000304012C31D0102D3DD0112D32D0122D07
:1013E8007FF43BAF8A6842F480028A600020C2E63C
:1013F8002B492AE7681C8E68546900EB40010727CF
:101408008F4006FA01F024EA07010143516112E70F
:10141800966E26F000469666C7E7566E26F000469A
:101428005666BDE7166E26F000461666B3E7102D21
:10143800D3D112E74FF0A040C3E70068C4073FF5D7
:101448007FAFC8E7B2F1A04F7FF407AF8A6842F0D8
:1014580080728A6001E7B2F1A04F7FF4FEAE134AB2
:1014680088681268124CB2FBF4F40A2202FB04F2F8
:1014780040F4000088600192019A002A3FF4EDAE22
:10148800019A013A0192019A002AF9D1E5E6146815
:10149800E6073FF555AF99E70001005000070050F7
:1014A8000003005000F0FF830005005008000020F2
:1014B80040420F000368B3F1A04FF0B502464ED08A
:1014C8003D4883424DD000F5407083423B4C04D0E8
:1014D800A34201D00120F0BD044692F84000012843
:1014E8003BD098680125400782F8405008D5536CD6
:1014F80043F0200353640120002382F84030F0BDFC
:10150800A0684707F3D4B3F1A04F53D02A4E2C4814
:101518002C4DB34208BF28460D682DB387684E6826
:1015280027F4604E576B46EA473646EA0E06866051
:101538009E6806F00306012E30D0A36803F003036B
:10154800012B2FD08368896823F471630D4323F03E
:101558000F031D4385600020CEE70220F0BD164C26
:10156800BBE74FF0A044B8E7816821F4604181608F
:10157800996801F0030101290CD0A36803F0030363
:10158800012B13D0836823F4716323F00F03836066
:101598000020B1E71B68D907DDD4EEE71B68DE073A
:1015A800CBD5D8E72368DC07D5D4CBE72368DB079E
:1015B800D1D4E7E70348AFE7000100500005005029
:1015C8000007005000030050074AD3684FF6FF0198
:1015D8000B40000243F0BF6300F4E06043F40033C3
:1015E8000343D360704700BF00ED00E0184B70B4B0
:1015F800DC68C4F30224C4F10706042E04F10403D2
:1016080028BF0426062B17D9033C0125A540013D18
:101618002A400123B340013B1940A140002841EA78
:1016280002010CDB00F1604000F561400901C9B21C
:1016380080F8001370BC704700221446E9E7054B98
:1016480000F00F0009010344C9B2197670BC704755
:1016580000ED00E0FCEC00E000F01F010123400970
:10166800024A8B4042F82030704700BF00E100E09A
:101678000138B0F1807F0ED2084B10B4084C586086
:10168800F02084F823000022072110469A60196090
:101698005DF8044B70470120704700BF10E000E080
:1016A80000ED00E0044A136804280CBF43F004036B
:1016B80023F004031360704710E000E0704700BF98
:1016C80008B5FFF7FBFF08BD002835D0F0B4436824
:1016D8008768C6680569446901683B430246334325
:1016E8002B430868D569154F2343946920F47F502C
:1016F80023432B4320F030000343B9420B6012D937
:101708000F4B1048104C0B44A0FB03131B099B0004
:1017180000200121D4631364906382F8200082F8CA
:101728002110F0BC7047094B0648094C0B44A0FB3C
:1017380003131B099B00EBE70120704707040240D5
:10174800F8FBFDBFCDCCCCCC00040240F8FFFDBFB8
:1017580000000240F0B590F82040012C0BD090F822
:1017680021400125AC4280F8205006D0002380F8A3
:1017780020300220F0BD0220F0BD0568076CD0F8CB
:101788003CE0002686632E68BC4026F001064768C8
:101798004FF0020C80F821C02E60CEF804406B6038
:1017A800C36A102F0BBFAA60A960E960EA604BB159
:1017B8002B6843F00E032B602B6843F001032B606A
:1017C8000020F0BD2B6843F00A032B602B6823F040
:1017D80004032B60F0E700BFF0B4C56B026C296806
:1017E800046804239340194226680DD077070BD567
:1017F8002268920603D4226822F004022260C26A98
:101808006B60C2B1F0BC104702239340194214D058
:10181800B70712D52268920606D42268012122F061
:101828000A02226080F82110826A6B60002380F827
:101838002030002AE6D1F0BC7047082393400B42C1
:10184800F9D03307F7D52168066B012321F00E0183
:1018580003FA02F2002721606A60836380F821306E
:1018680080F82070002EE6D03346F0BC184700BF41
:101878008C460968002900F0DC802DE9F04FDFF87C
:10188800C8E183B000254FF0010879E04FEA450927
:101898000323D0F800B003FA09F3DB4304F003068E
:1018A8000BEA030B06FA09F60AF1FF3A46EA0B06B9
:1018B800BAF1010F066040F29880C668DCF808208B
:1018C800334002FA09F21A43E300C26054D5594B77
:1018D800584A9B6943F001039361936925F0030912
:1018E80009F1804903F0010309F58039019305F0F6
:1018F8000303019AD9F808209B000F269E40B0F1F7
:10190800904F22EA060200F087804B4EB04200F06A
:1019180085804A4EB04200F08480494EB04200F0C3
:101928008480484EB0420CBF0426052606FA03F30D
:101938001343C9F80830DEF80030FA43E60354BF11
:1019480013403B43CEF80030DEF80430A60354BF02
:1019580013403B43CEF80430DEF80830E60254BFAB
:1019680013403B43CEF80830DEF80C30A40254BFD5
:1019780013403B43CEF80C30013531FA05F348D01B
:1019880008FA05F212EA0107F6D0DCF8044024F060
:10199800100ABAF1020F7FF479AF4FEAD50900EBCC
:1019A800890905F00703D9F820609B004FF00F0A5A
:1019B8000AFA03FB26EA0B0ADCF8106006FA03F3BE
:1019C80043EA0A03C9F820304FEA45090323D0F84F
:1019D80000A003FA09F3DB4304F003060AEA030A4A
:1019E80006FA09F646EA0A060660866806EA030A5F
:1019F800DCF80C6006FA09F646EA0A068660D0F8B2
:101A080004A0C4F300162AEA0202AE401643466058
:101A180053E703B0BDE8F08F002389E708FA03F322
:101A280086E7022606FA03F382E7032606FA03F39B
:101A38007EE7704700100240000400480008004894
:101A4800000C0048001000480004014003691942D6
:101A580014BF0120002070470AB981627047816174
:101A6800704700BF436959404161704770B50446EB
:101A78000D4616466B1C226828D19369980728D40E
:101A88009369D906F9D593699D06FCD510212023C1
:101A9800D161D3619369980744BF00239362936926
:101AA800D90703D4936943F00103936153681F492D
:101AB80004260B402025002153600120666484F829
:101AC800401084F8415084F8421070BD93699B0718
:101AD80001D5002070BD9369D90619D425B1FFF747
:101AE800B1F8801B8542C5D2636C202100220B43CC
:101AF800636484F8402084F84110032084F842206D
:101B080070BD4DB1FFF79EF8801B854204D3226853
:101B180093699B06F5D5B9E70023202284F8412074
:101B280084F8403084F84230012070BD00E800FE9F
:101B380070B5044616460D4629B93BE0FFF782F812
:101B4800801B85423DD322689369980646D49369E1
:101B5800D906F3D5681C22D193699906FCD51021C2
:101B68002023D161D3619369980744BF002393620E
:101B78009369D90703D4936943F0010393615368C8
:101B88001C4904260B40202500215360012066646F
:101B980084F8401084F8415084F8421070BD93696D
:101BA8009B06DCD4E5B1FFF74DF8801B854217D3BF
:101BB8002268CFE7026893699B060FD49369DB0616
:101BC800C8D4636C202100220B43636484F840204E
:101BD80084F84110032084F8422070BD002070BDB5
:101BE8000023202284F8412084F8403084F84230D1
:101BF800012070BD00E800FE2DE9F041D0F800E0BA
:101C0800DFF8A4C0DEF80440069EC1F3090141F0E4
:101C1800004141F4005104EA0C041F462143DBB2A1
:101C280041EA03419046CEF80410079A314605462A
:101C3800FFF71CFF60B9012F044610D02B684FEA4C
:101C480018229A623146079A2846FFF70FFF30B1EB
:101C58006B6C042B1BD003242046BDE8F081296857
:101C68005FFA88F38B62701C05D18B695A06FCD524
:101C78002046BDE8F0818B695B06EDD45EB1FEF7C6
:101C8800E1FF079BC01A864205D32968EBE70124C8
:101C98002046BDE8F0810023202285F8412085F800
:101CA800403085F84230D6E7009800FC002851D033
:101CB800F8B590F84130044603F0FF02002B40D0FD
:101CC8002368E068242284F841201968626821F0BA
:101CD800010122F0706219601A619A68012822F4E1
:101CE80000429A60A26831D042F4044202289A6005
:101CF80004BF4FF400625A6059682269D4F814E0AE
:101D0800A769E069266A41F0007141F40041596011
:101D1800DD6842EA0E0242EA0722304325F4004514
:101D2800DD60DA6018601968002241F001012025A1
:101D380019601046626484F84150226384F8422096
:101D4800F8BD80F8402002F07BFFB9E742F400427A
:101D58009A60D1E7012070472DE9F04190F84140A1
:101D6800202C02D00220BDE8F08190F84040012CE0
:101D7800F8D09846012380F8403017460D460446AF
:101D8800FEF760FF064604E0FEF75CFF801B19289B
:101D980062D82368986910F40040F5D1212284F8AC
:101DA8004120102284F842206064A4F82A80628DC1
:101DB800676292B2FF2A60636DD95A6848494948F8
:101DC800C5F30905294302400A43FF2121855A60CA
:101DD80045F0FF77DFF8148147F48037638D069963
:101DE8009BB232462046002B67D0FFF73FFE002803
:101DF8004BD1636A21685A1C62621B788B62628DC0
:101E0800238D013A013B92B29BB262852385002B58
:101E1800E4D1638D9BB2002BE0D0069B01330ED139
:101E28008B691A06FCD5638D9BB2FF2B1FD94B68B3
:101E380003EA08033B43FF2222854B60CEE78B6908
:101E48001B06F0D4069B3BB1FEF7FCFE069B801BED
:101E5800834201D32168E1E70023202284F841204E
:101E680084F8403084F842300320BDE8F081628D68
:101E7800486892B2D3B245EA034343F0007300EADC
:101E88000800034322854B60A8E7636C042BEBD161
:101E98000120BDE8F081618D124F5868C5F309052E
:101EA80089B245F00242384042F40052CFB242EAC9
:101EB8000742024321855A608AE7FFF739FE002866
:101EC800E3D12368084D2021D9615A682A405A6015
:101ED80084F8411084F8400084F84200BDE8F0819D
:101EE8000020FF81009800FC00E800FE009C00FC38
:101EF8002DE9F04790F8414082B0202CBDF82C50D5
:101F080003D0022002B0BDE8F0870A9C002C45D01F
:101F1800002D43D090F84040012CF2D01F460123F9
:101F280080F8403090460E460446FEF78BFE814608
:101F380005E0FEF787FEA0EB090019283CD82368C6
:101F48009B6913F4004AF4D10A9B63622220402162
:101F58000C9BC4F834A042460093CDF804903B464D
:101F680084F8410084F842102046C4F844A0314661
:101F78006585FFF741FE48B3636C84F840A0042BE5
:101F88000CD00320BEE74A460C992046FFF7D0FD47
:101F9800002800F08E80636C042BF2D10120B1E799
:101FA80093691B065BD40C9B33B1FEF74BFE0C9B6D
:101FB800A0EB090083424CD20023202284F8412060
:101FC80084F8403084F8423003209BE7638D226810
:101FD8009BB2FF2B5BD953683D483E49C6F30906BF
:101FE800314303400B43FF212185536046F0FF75C1
:101FF800394F0C9B45F4803501331AD193695B073F
:10200800FCD5636A526A591C61621A70238D628D0D
:10201800013B013A9BB292B22385628513B9638D65
:102028009BB2ABB9638D9BB2002BACD022680C9BE2
:10203800E2E793695807E4D40C9B002BBCD0FEF769
:1020480001FE0C9BA0EB09008342B5D32268D3E7BD
:102058000C9B22680133A3D193691906FCD5638DC3
:102068009BB2FF2B06D953683B402B43FF212185A8
:102078005360D7E7618D506889B2CBB246EA034313
:1020880043F000733840034321855360CAE7618DEC
:102098000F4D5368C6F3090646F0024089B22B403B
:1020A80040F41050CDB2034343EA05432185536001
:1020B8009CE72368094D2021D9615A682A405A6053
:1020C80084F8411084F8400084F842001AE700BF01
:1020D800009800FC0024FF81009C00FC00E800FE42
:1020E80090F84130DBB2202B01D002207047024625
:1020F80090F840000128F8D010B41068242482F821
:102108004140046824F001040460046824F4805405
:1021180004600468214301600168002441F0010162
:102128000160204682F8404082F841305DF8044B57
:10213800704700BF90F84130DBB2202B01D002205D
:102148007047024690F840000128F8D010B4106893
:10215800242482F84140046824F0010404600468DF
:1021680024F4706444EA012101600168002441F00C
:1021780001010160204682F8404082F841305DF854
:10218800044B7047002800F0CB822DE9F043036828
:10219800D90783B0044643D5B7494A6802F00C0210
:1021A800042A00F0B0814A6802F00C02082A00F004
:1021B800A6816368B3F5803F00F01882002B00F019
:1021C8006181B3F5A02F00F09E82AB4B1A6822F410
:1021D80080321A601A6822F480221A60A64DA2681A
:1021E800EB6A23F00F031343EB62FEF72BFD4FF46A
:1021F80000380746012605E0FEF724FDC01B6428C9
:1022080000F2798198FAA8F32A6898FAA8F3B3FA41
:1022180083F303F01F0306FA03F31342ECD0236899
:102228009F0742D5944A516811F00C0F00F0C980FD
:10223800516801F00C01082900F0BF802269002ACA
:1022480000F0AE81012292FAA2F3B3FA83F303F10C
:10225800845303F584139B0016461A60FEF7F2FCBC
:102268004FF002080746844D05E0FEF7EBFCC01B63
:10227800022800F2408198FAA8F32A6898FAA8F38D
:10228800B3FA83F303F01F0306FA03F31342ECD007
:102298002968F82292FAA2F26369B2FA82F221F06E
:1022A800F80193400B432B6023681D0721D458077E
:1022B8004DD5714BDA69D10040F1C1804FF000086B
:1022C8006E4D2B68DA0540F10681E368012B00F0BA
:1022D8009381002B00F02E81052B674B1A6A00F0C2
:1022E800B58122F001021A621A6A22F004021A6207
:1022F80087E1A269002A7BD0012292FAA2F1604B01
:102308005D4EB1FA81F10B449B0015461A60FEF749
:1023180099FC4FF00208074605E0FEF793FCC01B46
:10232800022800F2E88098FAA8F398FAA8F398FA35
:10233800A8F3726A98FAA8F3B3FA83F303F01F03B9
:1023480005FA03F31342E8D023685807B1D4E369C8
:102358007BB3494D6A6802F00C02082A44D0022B6C
:102368004FF0807300F07A8193FAA3F3B3FA83F302
:1023780003F1845303F584139B0000221A60FEF7CF
:1023880061FC4FF000740746012605E0FEF75AFC91
:10239800C01B022800F2AF8094FAA4F32A6894FACA
:1023A800A4F3B3FA83F303F01F0306FA03F313420B
:1023B800ECD1002003B0BDE8F0835268D6033FF5A6
:1023C8003DAF022292FAA2F12B49086892FAA2F2D2
:1023D800B2FA82F202F01F02012101FA02F202426D
:1023E80039D022698A4236D0012003B0BDE8F08393
:1023F800012595FAA5F1224B1F4EB1FA81F10B4444
:102408009B004FF002081A60FEF71CFC074604E028
:10241800FEF718FCC01B02286DD898FAA8F398FAA2
:10242800A8F398FAA8F3726A98FAA8F3B3FA83F3B0
:1024380003F01F0305FA03F31342E9D184E7DA69CD
:1024480042F08052DA61DB6903F080530193019B0B
:102458004FF0010834E7084DF821286891FAA1F1F6
:102468006269B1FA81F120F0F8008A4002432A60DB
:102478001D077FF51CAF3CE70010024000700040CC
:1024880020819010A74D2B6823F480332B602B6894
:1024980023F480232B60EB6AA26823F00F03134315
:1024A800EB62FEF7CFFB4FF400380746012604E045
:1024B800FEF7C8FBC01B64281DD898FAA8F32A6841
:1024C80098FAA8F3B3FA83F303F01F0306FA03F3A9
:1024D8001342EDD1A3E62B6843F480732B60FEF71B
:1024E800B1FB06462B68DB053FF5EFAEFEF7AAFB0E
:1024F800801B6428F6D9032003B0BDE8F0834A683E
:10250800D2037FF556AE4FF4003292FAA2F1854914
:10251800086892FAA2F2B2FA82F202F01F020121CE
:1025280001FA02F202423FF47BAE6268002A7FF4AD
:1025380077AE59E77B4D2B6A23F001032B622B6A98
:1025480023F004032B62FEF77DFB4FF002090746D8
:10255800012613E099FAA9F36A6A99FAA9F3B3FA7A
:1025680083F303F01F0306FA03F313420ED0FEF7BA
:1025780069FB41F28833C01B9842BCD899FAA9F389
:1025880099FAA9F3002BE5D02A6AE6E7B8F1000F1B
:102598003FF4DDAE634AD36923F08053D361D6E6B6
:1025A800012595FAA5F3B3FA83F303F1845303F5F0
:1025B80084139B004FF002081A60FEF743FB594E44
:1025C800074604E0FEF73EFBC01B022893D898FAA2
:1025D800A8F3326898FAA8F3B3FA83F303F01F0359
:1025E80005FA03F31342EDD123685EE64D4A1368FA
:1025F80043F480331360F1E54A4A136A43F0010358
:102608001362FEF71FFB4FF002090746454E0125EE
:1026180014E099FAA9F3726A99FAA9F3B3FA83F361
:1026280003F01F0305FA03F31342AFD1FEF70AFBC9
:1026380041F28833C01B98423FF65DAF99FAA9F37F
:1026480099FAA9F3002BE4D0326AE5E742F00402D4
:102658001A621A6A42F001021A62D2E793FAA3F3E5
:10266800B3FA83F303F1845303F584139B00002228
:102678001A60FEF7E7FA4FF000780746012605E0F2
:10268800FEF7E0FAC01B02283FF635AF98FAA8F328
:102698002A6898FAA8F3B3FA83F303F01F0306FA3B
:1026A80003F31342ECD16A68636A216A22F4741254
:1026B8000B4313436B604FF0807393FAA3F3B3FAA1
:1026C80083F303F1845303F584139B004FF00074E4
:1026D8001E60FEF7B7FA134E0746012505E0FEF720
:1026E800B1FAC01B02283FF606AF94FAA4F3326889
:1026F80094FAA4F3B3FA83F303F01F0305FA03F380
:102708001342ECD055E603F18043A3F53C331A6835
:1027180042F480221A601A6842F480321A605DE539
:10272800012070470010024078B1654A136803F031
:1027380007038B420BD2136823F007030B43136084
:10274800136803F00703994201D00120704703681A
:102758002DE9F0419F0706D55A4C8568626822F03A
:10276800F0022A436260DE0704460D4630D542680F
:10277800012A00F09380022A0CBF4FF00073022355
:1027880093FAA3F14F49086893FAA3F3B3FA83F3D2
:1027980003F01F03012101FA03F3034228D0494E35
:1027A800736823F0030313437360FEF74BFA41F297
:1027B8008837804605E0FEF745FAA0EB0800B842E6
:1027C80069D87368626803F00C03B3EB820FF2D127
:1027D8003B4A136803F007039D420CD2136823F0A9
:1027E80007032B431360136803F007039D4202D0CD
:1027F8000120BDE8F0812368580706D53149E06813
:102808004A6822F4E06202434A60190707D52D4A54
:102818002169536823F4605343EAC1035360294B89
:102828005A6802F00C01082916D02749254BF022D6
:102838005B6892FAA2F2B2FA82F203F0F003D34094
:102848002248234AC35C002021FA03F31360FEF7F1
:10285800B7F90020BDE8F0814FF4701191FAA1F1A9
:10286800B1FA81F102F47010C8401A4CD96A235C9D
:102878000F2090FAA0F0B0FA80F001F00F01C140EB
:102888001548D203405C4ABF0F491449B1FBF0F127
:1028980001FB03F1CAE70320BDE8F0814FF40033E0
:1028A80093FAA3F10749096893FAA3F3B3FA83F3F8
:1028B80003F01F0302FA03F30B427FF470AF97E7AC
:1028C800002002400010024000127A0094B600086E
:1028D8000800002070B3000880B3000800093D001C
:1028E800144A536803F00C01082921D14FF47011E0
:1028F80091FAA1F103F47010B1FA81F120FA01F113
:102908000D48D26A405C0F2191FAA1F1DB03B1FABC
:1029180081F102F00F024CBF084B094B22FA01F279
:1029280008498A5C48BFB3FBF2F303FB00F0704729
:10293800024870470010024070B3000800127A0085
:1029480000093D0080B30008014B1868704700BFBC
:1029580008000020084B4FF4E0625B6892FAA2F28C
:10296800B2FA82F203F4E063D3400449044ACB5C30
:102978001068D840704700BF00100240A4B6000895
:1029880008000020084B4FF460525B6892FAA2F2EC
:10299800B2FA82F203F46053D3400449044ACB5C90
:1029A8001068D840704700BF00100240A4B6000865
:1029B800080000202DE9F04304460068C50383B0F1
:1029C8003CD5824BDA69D00040F1B380804D2B684A
:1029D800D9054FF0000640F1BC807C4D2B6A13F4FA
:1029E800407320D0616801F4407293421CD0296A78
:1029F8004FF4803321F4407093FAA3F2754FB2FA82
:102A080082F23A4492004FF0010EC2F800E093FAC5
:102A1800A3F3B3FA83F33B449B0000221A60CB076D
:102A2800286200F1AD806168684A136A23F4407334
:102A38000B431362002E40F09E802068C70706D51E
:102A4800624AA168136B23F003030B4313638607E1
:102A580006D55E4AE168136B23F440330B431363D6
:102A6800450706D5594A2169136B23F440230B43C4
:102A78001363810606D5554AE169136B23F01003E9
:102A88000B431363820306D5504AA16B536823F4A2
:102A980080030B435360430606D54C4A216A136BE7
:102AA80023F020030B431363070706D5474A6169E0
:102AB800136B23F440130B431363C60606D5434A2E
:102AC800A169136B23F440030B431363850506D5F3
:102AD8003E4AE16A536823F400030B43536001063E
:102AE80006D53A4A616AD36A23F4F8730B43D36272
:102AF800C20506D5354AA16AD36A23F478530B4335
:102B0800D362C3040DD410F4005007D02F4A616B70
:102B1800136B23F400730B431363002003B0BDE869
:102B2800F0832A4A216B136B23F480730B431363DE
:102B3800E9E7DA69264D42F08052DA61DB6903F091
:102B480080530193019B2B68D9054FF001063FF58F
:102B580044AF2B6843F480732B60FEF773F8074685
:102B68002B68DA053FF539AFFEF76CF8C01B64280F
:102B7800F6D90320D2E7D36923F08053D3615CE709
:102B88007746FEF75FF84FF00209804615E099FA9C
:102B9800A9F36A6A99FAA9F3B3FA83F303F01F0356
:102BA80007FA03F313427FF43EAFFEF74BF841F206
:102BB8008833A0EB08009842DBD899FAA9F399FA70
:102BC800A9F3002BE3D02A6AE4E700BF0010024013
:102BD8000070004000819010002800F08A80F8B54D
:102BE80090F83D30044603F0FF02002B53D02368D1
:102BF8004149022284F83D208B421A6860D0B3F123
:102C0800804F64D0A1F594318B4222D001F58061C8
:102C18008B421ED001F596318B421AD001F54061E6
:102C28008B423DD001F580618B4239D001F580613E
:102C38008B4235D0A569E068616822F080022A439A
:102C48001A60D862996201225A61002084F83D20F6
:102C5800F8BDA1682669A069E768656822F0700276
:102C68000A4322F440722549324322F0800202438B
:102C78008B421A60DF629D620AD0214A934207D0D4
:102C880002F58062934203D002F580629342DAD162
:102C980062691A63D7E780F83C2006F003FAA6E7D2
:102CA8002069A16922F44072024322F080020A439B
:102CB8001A60E268DA6262689A6262691A63C2E755
:102CC800A5682069A16922F070022A43EAE7A6688C
:102CD8002069A169E768656822F07002324322F42E
:102CE8004072024322F080020A431A60DF629D624A
:102CF800C3E70120704700BF002C014000340140A9
:102D080000400140002800F08A80F8B590F83D3076
:102D1800044603F0FF02002B53D0236841490222E6
:102D280084F83D208B421A6860D0B3F1804F64D09C
:102D3800A1F594318B4222D001F580618B421ED0DF
:102D480001F596318B421AD001F540618B423DD096
:102D580001F580618B4239D001F580618B4235D015
:102D6800A569E068616822F080022A431A60D86287
:102D7800996201225A61002084F83D20F8BDA168BB
:102D88002669A069E768656822F070020A4322F4A0
:102D980040722549324322F0800202438B421A6076
:102DA800DF629D620AD0214A934207D002F5806211
:102DB800934203D002F580629342DAD162691A63C2
:102DC800D7E780F83C2006F0C5F8A6E72069A16996
:102DD80022F44072024322F080020A431A60E26839
:102DE800DA6262689A6262691A63C2E7A568206952
:102DF800A16922F070022A43EAE7A6682069A1695E
:102E0800E768656822F07002324322F44072024398
:102E180022F080020A431A60DF629D62C3E7012044
:102E2800704700BF002C01400034014000400140C1
:102E380003680122186A02FA01F120EA010010B4BD
:102E480018621A6A104C1143A342196216D00F4A2D
:102E5800934213D002F5406293420FD002F580628C
:102E680093420BD002F58062934207D01A685DF84E
:102E7800044B42F0010200201A6070475A6C42F479
:102E880000425A64F2E700BF002C014000340140C0
:102E9800002800F0C28090F83D302DE9F04103F0A1
:102EA800FF0204460D46002B00F0898023685C4928
:102EB800022284F83D209A6822F4803222F0070228
:102EC8009A608B421A6800F08F80B3F1804F00F04F
:102ED8009280A1F594318B424FD001F580618B42ED
:102EE8004BD001F596318B4247D001F540618B42BA
:102EF8006AD001F580618B4266D001F580618B4212
:102F080062D0A669E068616822F0800232431A60E4
:102F1800D86299624FF0010EC3F814E098689E6970
:102F2800AF69A9682A69D5F800C026F44078EE6927
:102F380041EA07211201EF6842EA06223A432F6A62
:102F48001E6A28F0030841EA080142EA07326F695D
:102F58006D6821F47C4121F0FC0126F0AA0645EABF
:102F6800071540EA0C000A43354398609A6100202F
:102F78001D6284F83DE0BDE8F081A1682669294812
:102F8800E76822F070020A4322F44072A1693243D2
:102F980022F080020A43834261681A60DF62996204
:102FA8000AD0214A934207D002F58062934203D0A7
:102FB80002F580629342ADD162691A63AAE780F88C
:102FC8003C2005F0FFFF71E72069A16922F44072F7
:102FD800024322F080020A431A60E268DA626268F9
:102FE8009A6262691A6395E7A6682069A16922F066
:102FF80070023243EAE7A6682069A169E76822F00F
:103008007002324322F44072024322F080020A43E3
:1030180061681A60DF629962C3E70120704700BFE8
:10302800002C01400034014000400140D1B1042986
:1030380016D003681A6A22F001021A621A6A42F06C
:1030480001021A621A6A22F010021A621A6A42F01F
:1030580010021A621A6842F001021A6000207047D2
:103068000368EFE703681A6A22F001021A621A6A13
:1030780042F001021A62EDE7704700BF704700BFD7
:10308800704700BF704700BF704700BF03681A69E8
:10309800910710B5044602D5DA68920765D41A6913
:1030A800520702D5DA6850074CD41A69110702D5BD
:1030B800DA68120734D41A69D00602D5DA68D1065C
:1030C8001ED41A69D20702D5DA68D0076BD41A69F8
:1030D800110602D5DA6812066DD41A69D00502D530
:1030E800DA6811066FD41A69520602D5DA685006F2
:1030F80051D41A69910602D5DA68920643D410BDF4
:103108006FF010021A61DB69082213F4407F2277FE
:1031180020466CD0FFF7B4FF002223682277D0E75F
:103128006FF008021A61DB6904229B0722772046A8
:103138005AD1FFF7A3FF2046FFF7A4FF0022236818
:103148002277B8E76FF004021A619B69022213F430
:10315800407F2277204644D1FFF790FF2046FFF7B3
:1031680091FF0022236822779FE76FF002021A611D
:103178009B690122990702772DD0FFF781FF002272
:10318800236822778BE76FF0200220461A61BDE89A
:10319800104000F08DBA6FF040021A612046FFF728
:1031A80073FF2368A5E76FF001021A612046FFF755
:1031B80063FF23688BE76FF080021A61204600F0F6
:1031C80079FA236889E76FF480721A61204600F063
:1031D80073FA236887E7FFF751FF2046FFF752FF8E
:1031E800CDE7FFF74DFFBCE7FFF74AFFA6E7FFF77C
:1031F80045FF2046FFF746FF8EE700BFF0B4046A9C
:103208008F680E681B4D24F001040462036A446849
:10321800826922F4803223F0020322F07302A8426A
:1032280043EA070342EA060216D005F50065A842FC
:1032380012D005F54065A8420ED005F58065A84274
:103248000AD005F58065A84206D0496844608261C5
:10325800F0BC416303627047CD688E6923F00803B0
:103268002B434D6924F44074354323F004032C4365
:10327800EBE700BF002C0140F0B4046A8F680E68C9
:103288001C4D24F010040462026A4468836923F028
:10329800807322F0200223F4E643A84242EA071290
:1032A80043EA062316D005F50065A84212D005F5B5
:1032B8004065A84215D005F58065A84211D005F5EE
:1032C8008065A8420DD0496844608361F0BC816381
:1032D80002627047CD6822F0800242EA051222F0AD
:1032E80040024D698E6924F44064354344EA8504FC
:1032F800E9E700BF002C0140F0B4046A8F680E684B
:103308001C4D24F480740462026A4468C36923F47F
:10331800803322F4007223F07303A84242EA0722A2
:1033280043EA060316D005F50065A84212D005F554
:103338004065A84215D005F58065A84211D005F56D
:103348008065A8420DD049684460C361F0BCC16380
:1033580002627047CD6822F4006242EA052222F434
:1033680080624D698E6924F44054354344EA05145B
:10337800E9E700BF002C0140F0B4046A8F680E68CA
:10338800174D24F480540462026A4468C36923F028
:10339800807322F4005223F4E643A84242EA07323B
:1033A80043EA062316D005F50065A84212D005F5B4
:1033B8004065A8420ED005F58065A8420AD005F5FB
:1033C8008065A84206D049684460C361F0BC0164C6
:1033D800026270474D6924F4804444EA8514F2E798
:1033E800002C0140F8B590F83C30012B5CD00D461C
:1033F80002230121044680F83C1080F83D30142A4D
:103408004BD8DFE802F0534A4A4A654A4A4A784AA2
:103418004A4A8A4A4A4A9D4A4A4A0B000368D5F8EA
:1034280008E0186A2F68694E20F480101862196A3B
:1034380058685A6D22F0807221F4001122F4E0429B
:10344800B34241EA0E5142EA072200F0B98006F57C
:103458000066B34200F0B48006F54066B34200F05F
:10346800AF8006F58066B34200F0AA8006F5806654
:10347800B34200F0A5806E6858605A65DE6519622F
:10348800596D286941F400615965596D21F48061CD
:1034980059655A6D42EA00225A650123002084F8D2
:1034A8003D3084F83C00F8BD0220F8BD294600688C
:1034B800FFF7A4FE23682869996941F0080199611A
:1034C800996921F0040199619A6902439A61E4E7D4
:1034D80029460068FFF7D0FE23682869996941F4F6
:1034E80000619961996921F4806199619A6942EA58
:1034F80000229A61D1E729460068FFF7FDFE23689C
:103508002869D96941F00801D961D96921F0040114
:10351800D961DA690243DA61BFE729460068FFF733
:103528002BFF23682869D96941F40061D961D969F9
:1035380021F48061D961DA6942EA0022DA61ACE7F4
:103548000368D5F808E0186A2F68204E20F4803008
:103558001862196A58685A6D22F4803221F40031D1
:1035680022F07002B34241EA0E4142EA070221D03A
:1035780006F50066B3421DD006F54066B34219D081
:1035880006F58066B34215D006F58066B34211D0C1
:103598006E6858605A659E651962596D286941F0D0
:1035A80008015965596D21F0040159655A6D0243A6
:1035B8005A6572E76E6920F4803040EA0620E7E732
:1035C8006E6920F4802040EA862054E7002C0140F0
:1035D80090F83C30012B1AD0026870B4104D536833
:1035E8009468AA4216D005F50065AA4212D00E6862
:1035F8008D6823F0700324F08001334300242943AD
:103608005360916080F83C40204670BC70470223AC
:10361800184670474D6823F470032B43E7E700BF53
:10362800002C014090F83C30012B2CD0F0B491E8EC
:10363800E000CB680C6923F440733B4323F48063B8
:10364800334323F400632B4323F48053024623437C
:1036580048698E6A144D8C6923F40053034323F49C
:1036680040431068334323F47023A84243EA0443D9
:103678000BD00E4CA04208D000214364F0BC084691
:1036880082F83C107047022070474D6ACC69096A7D
:1036980023F4700343EA055323F08073234323F094
:1036A80000730B43E8E700BF002C014000340140E1
:1036B800704700BF704700BF704700BFF0B50E46A7
:1036C80090F86910202983B002D0022003B0F0BD21
:1036D8007EB372B31D4690F86830012B0446F4D0CF
:1036E800002001212123E06684F8681084F86930FD
:1036F8000192FDF7A7FA019AA4F85020074620681E
:10370800A4F85220B4F852309BB2F3B1B4F8523056
:10371800013B9BB2A4F85230691C22D1C26912063F
:10372800FCD5A368B3F5805F37D0337803850136BD
:10373800E8E70120CAE7C3695B060BD4DDB1FDF7F2
:1037480081FAC01B8542206815D3691CF3D1C3696F
:103758005A06FCD52023002084F8693084F86800D4
:10376800B4E7C3691B06DCD42DB1FDF76BFAC01BA7
:1037780085422068D0D2036823F4D073036083683D
:10378800202223F001030021836084F869200320AC
:1037980084F8681084F86A2098E72369002BC4D15C
:1037A80036F8023BC3F308030385ABE72DE9F04184
:1037B800884690F86A10202982B003D0022002B00F
:1037C800BDE8F081B8F1000F3CD0002A3AD01D4680
:1037D80090F86830012B0446F0D022230020012104
:1037E800E06684F8681084F86A300192FDF72AFAD6
:1037F800A368019AA4F85820B3F5805F0746A4F897
:103808005A2055D0002B49D0B4F85C60B4F85A005F
:1038180080B200283CD0B4F85A30013B9BB2A4F8DF
:103828005A30691C20680FD1C2699206FCD5A3687A
:10383800B3F5805F24D0838C334088F8003008F1DA
:103848000108E3E70120BAE7C3699B06EFD42DB16D
:10385800FDF7F8F9C01B8542E3D22068036823F41A
:10386800D07303608368202223F001030021836062
:1038780084F86920032084F8681084F86A209EE799
:103888002369002BD7D1838C334028F8023BBDE74E
:10389800202384F8680084F86A3090E723691BB114
:1038A8007F26A4F85C60B1E7FF26A4F85C60ADE76A
:1038B8002369002BF8D140F2FF16A4F85C60A5E755
:1038C800F8B590F86A40202C01D00220F8BD0029F4
:1038D80030D0002A2ED090F86830012BF5D004465D
:1038E8000127406E144E84F868700025134622277D
:1038F8000A4621686265A4F85830E56684F86A705B
:103908000E4F86620E4E4563C76206632431FDF78B
:1039180021FF236884F868501A6842F480721A609C
:103928009A6842F001029A609A6842F0400228467A
:103938009A60F8BD0120F8BD4D39000889390008A2
:103948009939000808B50368406A1B6813F020031A
:1039580011D10268A0F85A30136823F480731360F9
:10396800936823F0010393609368202123F04003B8
:10397800936080F86A1003F099FC08BD704700BF97
:1039880008B5406AFFF7FAFF08BD00BF704700BFDF
:10399800406A08B590F86930212B1DD090F86A303C
:1039A800222B06D0C36E43F01003C366FFF7EEFF69
:1039B80008BD03689A685206F4D50022A0F85A2078
:1039C8001A6822F490721A609A68202122F0010283
:1039D8009A6080F86A10E5E703689A681106DDD5F1
:1039E8000022A0F852201A68202122F0C0021A6092
:1039F80080F86910D2E700BF90F8692090F86A0053
:103A080010437047436ADA0710B406D50168846A20
:103A18004A6822F4003222434A609C0706D50168AE
:103A2800C46A4A6822F4803222434A60590706D59C
:103A38000168046B4A6822F4802222434A601A070C
:103A480006D50168446B4A6822F4004222434A6062
:103A5800DC0606D50168846B8A6822F4805222430A
:103A68008A60990606D50168C46B8A6822F40052F8
:103A780022438A605A0609D50168046C4A6822F410
:103A880080122243B4F5801F4A600BD01B0606D56E
:103A98000268816C536823F400230B4353605DF87C
:103AA800044B70474A68446C22F4C00222434A60BF
:103AB800ECE700BF002800F02981F8B590F86930DC
:103AC800044603F0FF02002B3DD025686769D4F84F
:103AD80010E0E169E668242384F869302A68A3685D
:103AE80022F001022A60286843EA0E033B4320F4CF
:103AF800164020F00C000B4303432B606A68A3694F
:103B0800276AA74822F4405232436A60AA683B43B6
:103B180022F4306213438542AB6000F09780A14BDA
:103B28009D4200F0A680A04B9D4224D09F4B9D4211
:103B38000ED09F4B9D4200F0BE80B1F5004F00F0C3
:103B48002C810120F8BD80F8682005F081FBBCE7D6
:103B580003F5E2331B6B03F44013B3F5801F00F049
:103B6800A48013D9B3F5001F00F09380B3F5401F6C
:103B780000F0D580E1E703F5E4331B6B03F4402341
:103B8800B3F5802F00F0918000F2C280002BD4D1D1
:103B9800B1F5004F00F0E680FEF7DCFE626800EB4E
:103BA8005203B3FBF2F39BB2EB60636A002B49D17B
:103BB80023685A6822F490425A609A6822F02A02CE
:103BC8009A601A68002142F001021A60E166FDF766
:103BD80039F823681A68110706460BD41A68520781
:103BE80024D42023002084F8693084F8680084F8FD
:103BF8006A30F8BDDD6915F40015EFD1FDF722F83C
:103C0800801BB0F1007F2368F4D31A6822F4D072C5
:103C18001A609A68202122F001029A60032084F831
:103C2800691084F8685084F86A10F8BDDD6915F4E5
:103C38008005D6D1FDF706F8801BB0F1007F236818
:103C4800F4D3E2E72046FFF7DDFEB1E7594B5A4AC5
:103C58001B6B03F00303B1F5004FD35C3ED1082B77
:103C680000F29B80DFE803F07E6981999399999926
:103C78008B0003F5E6331B6B03F44033B3F5803F49
:103C880013D083D9B3F5003F03D0B3F5403F46D0F6
:103C980053E7B1F5004F72D06268530803F500434B
:103CA800B3FBF2F39BB2EB607FE7B1F5004F6ED048
:103CB800FEF716FE72E703F5E0331B6B03F44003CF
:103CC800B3F5800FF1D049D9B3F5000FE1D0B3F5C2
:103CD800400F24D0B1F5004F5FD01023082B3FF6DA
:103CE80030AF01A252F823F0A13B00089D3D000827
:103CF8002D3D00084B3B0008B93C00084B3B000831
:103D08004B3B00084B3B0008A13C000801207047D2
:103D1800B3F5002FBDD0B3F5402F7FF40EAFB1F54A
:103D2800004F22D06268530803F5F40303F590535B
:103D3800B3FBF2F39BB2EB6037E7FEF723FE626852
:103D48002568530803EB4003B3FBF2F39BB223F05F
:103D58000F02C3F342031343EB6026E7002B3FF443
:103D680017AFB7E7FEF7F6FDE9E76268530803F512
:103D7800740303F51053B3FBF2F39BB2E7E76268F1
:103D8800530803F58033B3FBF2F39BB2DFE7FEF78A
:103D9800A7FDD4E7FEF7F6FD00E70023EB60D0E6C9
:103DA800003801400044004000480040004C0040FA
:103DB800005000400010024090B30008014B18600A
:103DC800704700BFA400002030B50B4A0B4B83B0EE
:103DD80000248DF80600009310688DF80440EF2544
:103DE8000F23082269468DF805408DF80750FFF724
:103DF80065FC03B030BD00BFA40000207EFF0606AE
:103E080070B50B4A0B4B82B000268DF80600009364
:103E180010688DF804600125EF240F2308226946F5
:103E28008DF805508DF80740FFF748FC02B070BDCB
:103E3800A40000207EFF060F014B1860704700BFEA
:103E4800B000002000B50E4B87B01868FF2105AB05
:103E580002220291019200933F220123A021FEF742
:103E680047F8BDF81430B42000FB03F0C0F3CF309E
:103E7800C0F5B370013080B207B05DF804FB00BF35
:103E8800B000002030B5104B87B01968FF2505AB8E
:103E980002220446019200930295084601233F221C
:103EA800A021FEF725F8BDF81430B42000FB03F379
:103EB80040F26710A0EBE330001B48BF00F5B47078
:103EC80080B207B030BD00BFB0000020F8B54FF495
:103ED80039764A4D4A4C06FB00F085FB00652E18E2
:103EE800C517C5EBE61505F5BE750F4616462146FE
:103EF8000022444865601D46FFF774FA002877D110
:103F080000214048FEF794FF00286CD14FF4397324
:103F18003A4A3B493B4803FB07F382FB03721A44C6
:103F2800DB17C3EBE21303F5BE7304226360FFF7EC
:103F380059FA002852D104213248FEF779FF0028A7
:103F480047D14FF439722D4B2D492F4802FB06F209
:103F580083FB02639E18D317C3EBE61303F5BE7306
:103F680000226360FFF73EFA70BB00212648FEF787
:103F78005FFF20BB4FF43973204A2149234803FBD4
:103F880005F382FB03521A44DB17C3EBE21303F574
:103F9800BE7300226360FFF725FA58B900211B4859
:103FA800FEF746FF00B9F8BD35211948BDE8F840CD
:103FB80003F09EB93121164803F09AF9EEE72C2157
:103FC800134803F095F9D5E72821114803F090F933
:103FD800CBE723210E4803F08BF9B2E71F210C48E9
:103FE80003F086F9A7E71A21094803F081F98DE75C
:103FF8001621074803F07CF982E700BFB7600BB6CB
:10400800A401002050060020D007002090060020C0
:1040180094B3000830B583B001F07F03C1F3C61430
:10402800A0F18005012208211B488DF801408DF878
:1040380002308DF80050FDF70FFD18480F230322BA
:1040480069460446FFF73AFB2046FFF7D5FC2128CE
:10405800FAD0124C104800220821FDF7FDFC0F236E
:10406800032201A92046FFF7A1FB05462046FFF7DA
:10407800C3FC2228FAD05DB99DF805009DF80630EA
:10408800C00103F07F0300F47E50184303B030BD35
:104098004FF0FF3003B030BD000400485408002042
:1040A80038B5184C05466160002221461648FFF7CE
:1040B80099F908BB00211448FEF7BAFEB8B90422E2
:1040C800104911486560FFF78DF958B904210E4869
:1040D800FEF7AEFE00B938BD9D210C48BDE838405A
:1040E80003F006B99921094803F002F9EEE7942193
:1040F800064803F0FDF8E2E79021044803F0F8F8D9
:10410800D8E700BFA40100205007002094B300089E
:1041180038B5184C05466160082221461648FFF755
:1041280061F908BB08211448FEF782FEB8B90C22D1
:10413800104911486560FFF755F958B90C210E4828
:10414800FEF776FE00B938BDB3210C48BDE838400B
:1041580003F0CEB8AF21094803F0CAF8EEE7AA2168
:10416800064803F0C5F8E2E7A621044803F0C0F8C2
:10417800D8E700BFA40100205007002094B300082E
:1041880038B5184C05466160002221461648FFF7ED
:1041980029F908BB00211448FEF74AFEB8B90422E1
:1041A800104911486560FFF71DF958B904210E48F8
:1041B800FEF73EFE00B938BDC8210C48BDE83840BE
:1041C80003F096B8C421094803F092F8EEE7BF213E
:1041D800064803F08DF8E2E7BB21044803F088F8AD
:1041E800D8E700BFA40100209007002094B300087E
:1041F80010B4019C401AE41A04FB00F4521A94FB10
:10420800F2F05DF8044B1844704700BFF8B55C4BFA
:10421800002201214FF0A0474FF44036092504241D
:1042280018461F605E601D625C619A605A621A637C
:10423800DA609A619A631961D961D9625963FCF7A6
:1042480051FD002840F097804E4B4D4800221946FA
:104258001A60FDF72FF9002840F088804A4C48483A
:104268000023012206252146A56022606260E360E2
:1042780023616361FCF76AFF002872D10223424977
:104288003F4823606360FCF761FF002864D1032383
:104298003D493B4823606360FCF758FF002856D12E
:1042A80004233949364823606360FCF74FFF002830
:1042B80048D1062205233449314884E80C00FCF72C
:1042C80045FF002839D1072206232F492C4884E8C6
:1042D8000C00FCF73BFF58BB082207232A49284853
:1042E80084E80C00FCF732FFE8B9092208232649C4
:1042F800234884E80C00FCF729FF78B90A2209232F
:1043080021491F4884E80C00FCF720FF00B9F8BDDC
:10431800B0211E48BDE8F84002F0EABFA7211B48BB
:1043280002F0E6FFEAE79E21184802F0E1FFDCE729
:104338009521164802F0DCFFCEE78C21134802F0E5
:10434800D7FFC0E78321114802F0D2FFB1E77A21F5
:104358000E4802F0CDFFA3E771210C4802F0C8FF18
:1043680095E76821094802F0C3FF87E75B21074802
:1043780002F0BEFF72E75321044802F0B9FF63E779
:10438800FC03002058030020E0000020A8B3000828
:10439800364B374A70B501211A604FF44036002277
:1043A8000525042418465E601D625C619A605A62A5
:1043B8001A63DA609A619A631961D961D96259639B
:1043C800FCF790FC00284BD12A4C284800230122F6
:1043D80006252146A56022606260E360236163616F
:1043E800FCF7B4FE002836D1022322491F48236077
:1043F8006360FCF7ABFE48BB03231E491B482360E0
:104408006360FCF7A3FEE0B904231A491748236048
:104418006360FCF79BFE78B90C2205231549134805
:1044280084E80C00FCF792FE00B970BDFA2112482E
:10443800BDE8704002F05CBFF1210F4802F058FF60
:10444800EAE7E8210C4802F053FFDDE7DF210A48DC
:1044580002F04EFFD0E7D621074802F049FFC3E734
:10446800C921054802F044FFAEE700BF64030020FD
:1044780000010050E0000020A8B30008734B744A04
:1044880070B501211A604FF4403600220B25042430
:1044980018465E601D625C619A605A621A63DA604F
:1044A8009A619A631961D961D9625963FCF71AFC58
:1044B800002840F0C580674B6448002219461A60FE
:1044C800FCF7F8FF002840F0B580634C5F480023F4
:1044D800012206252146A56022606260E36023610F
:1044E8006361FCF733FE002840F09E8002235A499E
:1044F800564823606360FCF729FE002840F08E8050
:10450800052203235449514884E80C00FCF71EFE99
:1045180000287DD1082204234F494C4884E80C0028
:10452800FCF714FE00286DD1092205234A494748A3
:1045380084E80C00FCF70AFE00285DD10A22062355
:104548004549424884E80C00FCF700FE00284DD19C
:104558000B22072340493D4884E80C00FCF7F6FD90
:1045680000283DD10C2208233B49384884E80C0038
:10457800FCF7ECFD70BB0D2209233749334884E86A
:104588000C00FCF7E3FDF8B90E220A2332492F4844
:1045980084E80C00FCF7DAFD80B910220B232E49C1
:1045A8002A4884E80C00FCF7D1FD00B970BD4FF42F
:1045B800C1712A48BDE8704002F09ABE40F27911F4
:1045C800264802F095FEE8E74FF4B871234802F058
:1045D8008FFED9E740F26711204802F089FECAE74A
:1045E8004FF4AF711D4802F083FEBBE740F255114E
:1045F8001A4802F07DFEABE74FF4A671174802F0A7
:1046080077FE9BE740F24311144802F071FE8BE7F6
:104618004FF49D71114802F06BFE7BE740F23111B7
:104628000E4802F065FE6BE74FF494710B4802F0F8
:104638005FFE5BE740F21B11084802F059FE44E7B1
:1046480040F21311054802F053FE34E750040020ED
:104658000004005058030020E0000020A8B3000820
:10466800384B394A70B501211A604FF440360022A0
:104678000525042418465E601D625C619A605A62D2
:104688001A63DA609A619A631961D961D9625963C8
:10469800FCF728FB00284FD12C4C2A480023012284
:1046A80006252146A56022606260E360236163619C
:1046B800FCF74CFD002839D1022324492148236006
:1046C8006360FCF743FD58BB032320491D48236062
:1046D8006360FCF73BFDE8B904231C4919482360D3
:1046E8006360FCF733FD78B9052318491548236042
:1046F8006360FCF72BFD00B970BD40F2CD11144882
:10470800BDE8704002F0F4BD4FF4E271104802F0C9
:10471800EFFDE9E740F2BB110D4802F0E9FDDBE7E8
:104728004FF4D9710A4802F0E3FDCDE740F2A91130
:10473800074802F0DDFDBFE74FF4CE71044802F0F0
:10474800D7FDA9E7E804002000050050E00000209C
:10475800A8B300082DE9F0410368B3F1A04F8AB06F
:1047680004464AD09B4A934200F08B809A4A93426F
:1047780000F0BE80994A934202D00AB0BDE8F081A9
:10478800974A13680133012B136000F00281954D9D
:10479800954800264FF44043032705A9059306973B
:1047A8000796FDF765F84FF4504305A98F4806971B
:1047B800059307968027FDF75BF8DFF85CE26E60EB
:1047C8004FF480714FF4806220232846AE60EE617A
:1047D800C5F800E0EF6029616A61AB61FCF774FF1E
:1047E800002840F0D080824A6C62136843F48073DA
:1047F8001360E5630AB0BDE8F0817E4A13680133AF
:10480800012B136000F0B480002603277A487B4D03
:10481800069705A94FF00F08CDF814800796FDF705
:1048280027F8042305A97648059306970796FDF708
:104838001FF805A94FF090400697CDF81480079609
:104848008027FDF715F8DFF8D4E16E604FF480712A
:104858004FF4806220232846AE60EE61C5F800E080
:10486800EF6029616A61AB61FCF72EFF20B140F26D
:104878000A21644802F03CFDE5636C620AB0BDE8B9
:10488800F0815C4A13680133012B136000F08C80BF
:104898005D4D0026F023032705A94FF090400593AE
:1048A80006970796FCF7E4FF042305A94F480697E7
:1048B800059307968027FCF7DBFFDFF864E16E605D
:1048C8004FF480714FF4806220232846AE60EE6179
:1048D800C5F800E0EF6029616A61AB61FCF7F4FE9E
:1048E800002880D040F23B21464802F001FD7AE7DB
:1048F8003B4A13680133012B136060D0002603275D
:1049080042F203033948414D059305A906970796D6
:10491800FCF7AEFF4FF4B45305A933480697059347
:104928000796FCF7A5FF4FF4F04305A9384806970A
:10493800059307968027FCF79BFFDFF8E8E06E6099
:104948004FF480714FF4806220232846AE60EE61F8
:10495800C5F800E0EF6029616A61AB61FCF7B4FE5D
:10496800002889D040F27921264802F0C1FC83E76B
:10497800284B5A6942F080525A615B6903F08053B0
:104988000193019B40E740F2AA211E4802F0B0FCC7
:1049980029E7204B5A6942F000525A615B6903F0DB
:1049A80000530493049BF2E61A4B5A6942F0805272
:1049B8005A615B6903F080530293029B68E7154BC9
:1049C8005A6942F000525A615B6903F0005303933D
:1049D800039B93E7000100500004005000050050BD
:1049E8009400002014030020001000480004004830
:1049F800000001409000002000080048A4040020A6
:104A080000140048A8B300083C050020B8030020A3
:104A1800000C004800100240440402400800024014
:104A280030040240580402401F4B00B55A6942F056
:104A380002025A615A6983B002F002020092009A97
:104A48005A6942F001025A615B69002203F00103CE
:104A5800114601930B20019BFCF7C8FD0B20FCF7C6
:104A6800FBFD002202211020FCF7C0FD1020FCF7FE
:104A7800F3FD002211463A20FCF7B8FD3A20FCF776
:104A8800EBFD002204213B20FCF7B0FD3B20FCF7A6
:104A9800E3FD002206213C20FCF7A8FD3C20FCF7A2
:104AA800DBFD03B05DF804FB00100240434BF0B59A
:104AB8005A69434D434F444E42F400125A615A69B1
:104AC8008DB002F400120192019A5A6942F4002250
:104AD8005A615A6902F400220292029A5A6942F40F
:104AE80080025A615A6902F480020392039A5A6951
:104AF80042F400325A615A6902F400320492049A6C
:104B08005A6942F480225A615A6902F48022059255
:104B1800059A5A6942F480125A615B6903F480135A
:104B28000693284600224FF4F861069BFCF794FF91
:104B3800384600224FF40271FCF78EFF00223046FF
:104B48000321FCF789FF0024304607A94023079377
:104B580008940994FCF78CFE07A94FF460431B489E
:104B6800079308940994FCF783FE07A94FF4007390
:104B78001748079308940994FCF77AFE284607A972
:104B880001254FF4F863079309940A940895FCF7F4
:104B98006FFE384607A94FF40273079308950994E6
:104BA8000A94FCF765FE032307A930460895099483
:104BB8000A940793FCF75CFE0DB0F0BD00100240AC
:104BC800000C004800040048001000480008004895
:104BD80000140048164B174A10B50121164C1A60EC
:104BE800184600225C60D9609A601A615A619A611D
:104BF800DA611A62FDF75AF8A8B900210C48FDF7E6
:104C08006FFA58B900210A48FDF794FA00B910BDA7
:104C180050210A48BDE8104002F06ABB4921074804
:104C280002F066FBEEE74221044802F061FBE4E78C
:104C380080050020005400402A1D4000B8B3000839
:104C48000268114B9A4200D0704770B5042386B0B1
:104C580003220DEB03014FF4C076122501240B4803
:104C680004920593019602950394FCF701FE084B04
:104C7800DA6942F40012DA61DB6903F40013009385
:104C8800009B06B070BD00BF0054004000040048FF
:104C98000010024000B589B0027800234021039338
:104CA8000493059306938DF81C308DF80C10002A98
:104CB80054D043788DF80D20002B51D082788DF890
:104CC8000E30002A4ED0C3788DF80F20002B4BD021
:104CD80002798DF81030002A48D043798DF81120D8
:104CE800002B45D082798DF81230002A42D0C37942
:104CF8008DF81320002B3FD0027A8DF81430002A4B
:104D08003CD0437A8DF81520002B39D0827A8DF863
:104D18001630002A36D0C37A8DF81720A3B3027B49
:104D28008DF8183092B3437B8DF8192083B3827BBA
:104D38008DF81A3072B3C37B8DF81B2063B38DF8DE
:104D48001C3011239BB2154AC8211068009103AA90
:104D58007821FDF701F809B05DF804FB0123F2E7BB
:104D68000223EFE70323EDE70423EBE70523E9E755
:104D78000623E7E70723E5E70823E3E70923E1E755
:104D88000A23DFE70B23DDE70C23DBE70D23D9E755
:104D98000E23D7E70F23D5E71023D3E7E802002037
:104DA800F0B52A4E85B033680F250024074603AABC
:104DB80000954FF02A0E1846782102238DF80DE051
:104DC8008DF80C40FCF7C8FF009503AA4FF0790E48
:104DD80030688DF80DE0022378218DF80C40FCF73F
:104DE800BBFF4FF0810E009503AA30688DF80DE0E7
:104DF800022378218DF80C40FCF7AEFF009503AA3A
:104E08008DF80D7030688DF80C40782702237821D2
:104E1800FCF7A2FF009503AA394630688DF80C40CC
:104E280002238DF80D70FCF797FF009503AA394609
:104E3800022330688DF80C4028258DF80D50FCF7BA
:104E48008BFF6420FBF704FF05B0F0BDE8020020EB
:104E58002DE9F041254F84B002240F250026234672
:104E680003AA0095782138608DF80D408DF80C6004
:104E7800FCF772FF234603AA3868009578218DF85D
:104E88000C608DF80D50FCF767FF0A20FBF7E0FE79
:104E98004FF00108234603AA3868009578218DF859
:104EA8000C608DF80D80FCF757FFFF20FFF778FFA7
:104EB80038680095234603AA78218DF80D808DF86F
:104EC8000C60FCF749FF23463868009503AA78214F
:104ED8000C248DF80C608DF80D40FCF73DFF0A207E
:104EE800FBF7B6FE04B0BDE8F08100BFE802002081
:104EF80030B5094B85B018680F23009300250124AD
:104F0800022303AA78218DF80C508DF80D40FCF788
:104F180023FF05B030BD00BFE802002030B585B0E2
:104F280090B90F2925DD1B4B18680F230093002526
:104F38008024022303AA78218DF80C508DF80D40A7
:104F4800FCF70AFF05B030BD0128ECD10F29EADCD7
:104F5800104B18680F23A1F1600400930025022369
:104F680003AA78218DF80D408DF80C50FCF7F4FE5B
:104F7800E8E7084B8DF80C0018680F23A1F18004AE
:104F8800009303AA022378218DF80D40FCF7E4FE74
:104F980005B030BDE802002030B5094B85B00224C9
:104FA8000F22186800922346002503AA78218DF85D
:104FB8000D408DF80C50FCF7CFFE05B030BD00BF9A
:104FC800E8020020F0B59FB04FF480330327002695
:104FD8000125102102244FF4E01205A80597069335
:104FE8000D93079609950A910C940E92FDF7CAF84D
:104FF80000B1FEE703464FF4806221460F2568465C
:1050080002930493019400950392FDF78DFB0346E8
:1050180000B1FEE743F22F020FA8119312931393E6
:10502800149316931B931C930F92FDF7C3FC04462D
:1050380000B1FEE7FDF788FC084BA3FB00308009B0
:10504800FCF716FB0420FCF72DFB224621464FF007
:10505800FF30FCF7CBFA1FB0F0BD00BFD34D621094
:105068002DE9F04F2DED028B85B002F0E1FE0446EC
:1050780002F052FEA44D0A282E7800F0A580092ED1
:1050880004D9A24B012200261A702E70A04B1B785F
:10509800B34205D09E4A9F4B167047F230525A626F
:1050A800B4F5B47F80F08180012E00F00C83022ECD
:1050B80000F00981032E00F0D683052E00F0408110
:1050C800062E00F05B81072E00F07681082E00F096
:1050D8009181092E00F0AC81022E2BD8B32C77D801
:1050E8002046FBF7BFF986A3D3E9002306460F46FF
:1050F800FBF71EFA41EC100B04F036FE5A2CB0EE0A
:10510800408AF0EE608A00F0DC8030460022824B54
:105118003946FBF70DFA53EC182BFBF709FAFBF7A6
:10512800FFFC07EE900AFCEEE77ACDED027ABDF8B7
:10513800086075E00A2ED1D0B32C40F29280C4F5F5
:10514800B470FBF78FF96EA3D3E9002306460F4628
:10515800FBF7EEF941EC100B04F086FD00226E4BD4
:10516800304639468DED020BFBF7E2F99DED020B57
:1051780053EC102BFBF7DCF941EC100B04F0E4FCCA
:10518800B4F5877F00F0768551EC100BFBF7C8FC6F
:10519800FBF77AF902460B4600206049FBF714F842
:1051A800FBF79EFC86B2B4203BE000221146104675
:1051B80002F0A2F85A484FF4806105B0BDEC028BAA
:1051C800BDE8F04FFCF74EBC0136F6B22E7056E73C
:1051D800C4F5B4767000FBF745F941EC100B04F008
:1051E800C3FDB4F5877FB0EE408AF0EE608A68D0E0
:1051F8003046FBF737F90022474BFBF799F953EC98
:10520800182BFBF795F9FBF78BFCFBF73DF90246EA
:105218000B4600204149FAF7D7FFFBF761FC86B23D
:10522800002002F003FC4FF4487231467D2002F062
:1052380063F8384B3B48596A04F02AFC3A4B3B4820
:10524800596A04F025FC3A4B3A48596A04F020FCA4
:105258002978394804F01CFC2146384804F018FC29
:10526800A8E72046FBF7FEF825A3D3E90023064666
:105278000F46FBF75DF941EC100B04F0F5FC00223A
:10528800254B304639468DED020BFBF751F99DED64
:10529800020B53EC102BFBF74BF941EC100B04F00D
:1052A80053FC5A2C00F0E68451EC100BFBF738FC49
:1052B80007EE900AFCEEE77ACDED027ABDF80860B9
:1052C80071E75A26ACE7134B596A47F2A03291426C
:1052D80005D95A6A47F249439A4240F2D98542F2BF
:1052E800B6730093B42241F2E12300215720FEF760
:1052F8007FFF81B20020FEF78DFE2E78DAE600BF30
:105308006666666666660240160100209800002000
:1053180006020020000400400000B03F00807640F4
:10532800000C004820B500080008004028B5000817
:105338000034014030B5000838B5000844B500080D
:10534800A14B596A47F2A032914205D95A6A47F2ED
:105358002F539A4240F2F48542F2B6730093B42276
:1053680041F2E12300215720FEF742FF81B20020DD
:10537800FEF750FE2E78062E7FF4A5AE924B596AA2
:1053880047F2A032914205D95A6A47F22F539A42FE
:1053980040F2CC8542F2B6730093B42241F2E12385
:1053A80000215720FEF724FF81B20020FEF732FECD
:1053B8002E78072E7FF48AAE834B596A47F2A032C3
:1053C800914205D95A6A47F22F539A4240F27D8595
:1053D80042F2B6730093B42241F2E1230021572030
:1053E800FEF706FF81B20020FEF714FE2E78082E85
:1053F8007FF46FAE744B596A47F2A032914205D9D7
:105408005A6A47F22F539A4240F2558542F2B673D0
:105418000093B42241F2E12300215720FEF7E8FE71
:1054280081B20020FEF7F6FD2E78092E7FF454AEE7
:105438000FF28C19D9E90089DFF898B14FF0000A0A
:10544800614B5A6A47F2CC439A4237D902F0F0FCD2
:10545800B328044600F25381FBF704F842464B4652
:1054680006460F46FBF764F841EC100B04F07CFC91
:10547800B4208DED020B02F0D9FA52465B46304655
:105488003946FBF755F89DED020B53EC102BFBF753
:105498004FF8FBF745FB07EE900AFCEEE77A4FF46E
:1054A8004872CDED027ABDF808107D2001F024FF86
:1054B800454B5A6A47F2CC439A42C7D80022114654
:1054C8001046424E01F018FF47F230537362726A79
:1054D80047F25A339A420ED9B42002F0A7FA4FF491
:1054E800FA724FF487717D2001F006FF726A47F265
:1054F8005A339A42F0D8364B1B78002B00F0BD8304
:1055080042F2B673B4220093002141F2E1235A20FB
:10551800FEF76EFE2D4E81B20120FEF77BFD726A0A
:1055280047F27A139A420ED9B42002F07FFA4FF468
:10553800FA724FF487717D2001F0DEFE726A47F23D
:105548007A139A42F0D802F073FC09E0B42002F012
:105558006DFA4FF4FA724FF487717D2001F0CCFE9A
:1055680002F066FCA0F58773B0F5C87F9BB2EDDC4E
:105578000F2BEBD94FF47A710846FEF791FD4FF4E3
:105588007A710846FEF7C4FD4FF47A710846FEF7B3
:10559800F7FD6420FBF75CFB002002F047FA5A2372
:1055A80018465F226421FEF791FC0FF21409D9E92D
:1055B80000894FF0000ADFF81CB03EE0AFF300802E
:1055C80066666666666602400004004000080040A1
:1055D800980000200000B03F2046FAF743FF4246FB
:1055E8004B4606460F46FAF7A3FF41EC100B04F0B2
:1055F800BBFB5A2CB0EE408AF0EE608A00F0B18016
:10560800304652465B463946FAF792FF53EC182B60
:10561800FAF78EFFFBF784FA07EE900AFCEEE77ABA
:10562800CDED027ABDF80860002002F0FFF931469E
:105638004FF42F727D2001F05FFE2B78092B40F08C
:10564800968002F0F5FB044602F066FB0A282B78E8
:1056580000F08980D04A12789A4205D0CE49CF4AC4
:105668000B7047F230535362B32CB5D9C4F5B470FC
:10567800FAF7F8FE42464B4606460F46FAF758FF39
:1056880041EC100B04F070FBB4F5877FB0EE408A54
:10569800F0EE608A65D0304652465B463946FAF7E6
:1056A80047FF53EC182BFAF743FFFBF739FAFAF7E1
:1056B800EBFE02460B460020B949FAF785FDFBF7D9
:1056C8000FFA86B2B0E7B54B596A47F204429142E5
:1056D80005D95A6A47F285439A4240F20A8442F24F
:1056E800B6730093B42241F2E12300215720FEF75C
:1056F8007FFD81B20020FEF78DFC2E78D7E4C0F53F
:10570800B470FAF7AFFE42464B4606460F46FAF724
:105718000FFF41EC100B04F027FBB4208DED020BBA
:1057280002F084F952465B4630463946FAF700FFE4
:105738009DED020B53EC102BFAF7FAFEFBF7F0F98C
:10574800FAF7A2FE02460B4600209549FAF73CFDFF
:10575800FBF7C6F94FF4487281B27D2001F0CCFD09
:105768006EE65A2660E70133DBB22B7072E78B4B8B
:10577800DFF838B286A7D7E9006747F230525A6295
:105788004FF0000A854B5A6A47F268439A4236D965
:1057980002F04EFBB328044633D8FAF763FE3246CC
:1057A8003B4680468946FAF7C3FE41EC100B04F0ED
:1057B800DBFA00208DED020B02F038F952465B4609
:1057C80040464946FAF7B4FE9DED020B53EC102B08
:1057D800FAF7AEFEFBF7A4F907EE900AFCEEE77ABB
:1057E8004FF44872CDED027ABDF808107D2001F023
:1057F80083FD6A4B5A6A47F268439A42C8D82E78A2
:105808006AE4C0F5B470FAF72DFE32463B4680468E
:105818008946FAF78DFE41EC100B04F0A5FA00203A
:105828008DED020B02F002F952465B4640464946AE
:10583800FAF77EFE9DED020B53EC102BFAF778FE7B
:10584800FBF76EF9FAF720FE02460B460020544992
:10585800FAF7BAFCFBF744F94FF4487281B27D209D
:1058680001F04AFD8EE75A231A4618466421FEF7CE
:105878002DFB0FF21C19D9E90089DFF830B14FF080
:10588800000A464B5A6A47F2CC439A4237D902F08B
:10589800CFFAB328044600F2B781FAF7E3FD42468F
:1058A8004B4606460F46FAF743FE41EC100B04F050
:1058B8005BFA00208DED020B02F0B8F852465B4609
:1058C80030463946FAF734FE9DED020B53EC102BA7
:1058D800FAF72EFEFBF724F907EE900AFCEEE77ABA
:1058E8004FF44872CDED027ABDF808107D2001F022
:1058F80003FD2A4B5A6A47F2CC439A42C7D8002282
:1059080011461046274E01F0F7FC47F230537362F8
:10591800726A47F25A339A420ED9002002F086F88A
:105928004FF4FA724FF487717D2001F0E5FC726A3A
:1059380047F25A339A42F0D81B4B1B78002B00F0E1
:10594800138342F2B673B4220093002141F2E1239B
:105958005A20FEF74DFC134E81B20120FEF75AFB88
:10596800726A47F27A139A420ED9002002F05EF862
:105978004FF4FA724FF487717D2001F0BDFC726A12
:1059880047F27A139A42F0D802F052FA1AE000BFAE
:1059980066666666666602400602002000040040ED
:1059A8000080764000080040980000200000B03FCA
:1059B800002002F03BF84FF4FA724FF487717D2013
:1059C80001F09AFC02F034FAA0F58773B0F5C87FAD
:1059D8009BB2EDDC142BEBD95A2318465F226421C5
:1059E800FEF774FA4FF47A710846FEF759FB4FF444
:1059F8007A710846FEF78CFB4FF47A710846FEF779
:105A0800BFFBB42002F012F80FF27C39D9E9008903
:105A1800DFF8ACB34FF0000A2B78032B46D102F025
:105A280007FA044602F078F90A282B7800F01E815C
:105A3800D74AD84912789A42C4F5B47004D0D44AE7
:105A4800137047F230534B62B32C7BD82046FAF7D9
:105A580009FD42464B4606460F46FAF769FD41ECFA
:105A6800100B04F081F9B4208DED020B01F0DEFF7C
:105A780052465B4630463946FAF75AFD9DED020B11
:105A880053EC102BFAF754FDFBF74AF807EE900A8F
:105A9800FCEEE77A4FF42F72CDED027ABDF80810CC
:105AA8007D2001F029FC2B78032BB8D0B94BDFF807
:105AB80010B30FF2D429D9E9008947F230525A625B
:105AC8004FF0000AB34B5A6A47F268439A4236D9F4
